:03000000020006F5
:1E005F007508C07509F9750AA4750BB0750C9B750D92750E82750F0075100002000339
:0300030002007D7B
:20007D00750F00751000E50F2408F9879005107438251050F1050F74F9250F50E680E12285
:06003500E4787FF6D8FD1F
:200013007900E94400601B7A009000A1780175A000E493F2A308B8000205A0D9F4DAF275F2
:02003300A0FF2C
:20003B007800E84400600A790175A000E4F309D8FC7800E84400600C7900900001E4F0A3C3
:04005B00D8FCD9FAFA
:0D00060075811012009DE582600302000369
:04009D007582002246
:00000001FF
